:200000000C942A000C9434000C9434000C9434000C9434000C9434000C9434000C9434004A
:200020000C9434000C9434000C9434000C9434000C9434000C9434000C9434000C94340020
:200040000C9434000C9434000C9434000C9434000C94340011241FBECFE5D4E0DEBFCDBFD9
:200060000E9436000C9473000C940000A59AA49AA39AA29AA19AA09AAD9A87EA91E60197C3
:20008000F1F700C00000AC9AAD9887EA91E60197F1F700C00000AB9AAC9887EA91E60197FC
:2000A000F1F700C00000AB98AA9A87EA91E60197F1F700C00000AA98A99A87EA91E60197E4
:2000C000F1F700C00000A998A89A87EA91E60197F1F700C00000A89887EA91E60197F1F725
:0A00E00000C00000C9CFF894FFCF64
:00000001FF
