:200000000C942A000C9447000C9447000C9447000C9447000C9447000C9495000C94470077
:200020000C9447000C9447000C9447000C9447000C9447000C9447000C9447000C94470088
:200040000C9447000C9447000C9447000C9447000C94470011241FBECFE5D4E0DEBFCDBF7A
:2000600010E0A0E6B0E0E2E3F4E102C005900D92A63CB107D9F710E0A6ECB0E001C01D92FE
:20008000A53FB107E1F70E942B060C94170A0C9400000F931F93CF93DF93EA01890121E01A
:2000A00030E08130910511F020E030E06130710581F4B901882777FD8095982F0E940209F6
:2000C00020E030E040E050E40E946B080E94CF089B01C130D10581F4B901882777FD809564
:2000E000982F0E94020920E030E040E850E40E946B080E94CF089B010130110581F4B90180
:20010000882777FD8095982F0E94020920E030E040E051E40E946B080E94CF089B01C901DA
:20012000DF91CF911F910F9108951F920F920FB60F921124EF92FF920F931F932F933F931B
:200140004F935F936F937F938F939F93AF93BF93CF93DF93EF93FF938091D7009091D80006
:200160008031910581F0E091D700F091D800EE0FFF1FE05AFF4F80819181969587959695FE
:2001800087959BBD8ABD8091F3009091F400009709F456C06091820070918300C091D700C2
:2001A000D091D800E090EA00F090EB000091EC001091ED00882777FD8095982F20EA35E216
:2001C00046E250E00E948E09CC0FDD1FC05ADF4F2881398140E050E00E94C109E216F3065F
:2001E00004071507C8F48091D7009091D8008031910521F085B390E4892785BB0894E11CAE
:20020000F11C011D111DE092EA00F092EB000093EC001093ED0014C01092F4001092F300AE
:200220001092EA001092EB001092EC001092ED001092F00084E090E09093830080938200E7
:20024000FF91EF91DF91CF91BF91AF919F918F917F916F915F914F913F912F911F910F911E
:20026000FF90EF900F900FBE0F901F901895282F392FD901862F972FFC018DEF1D9211922A
:200280008150E1F7089580918400882319F024EB30E002C02AE530E04091F0004130F9F4B0
:2002A0008091E8009091E9008217930730F401969093E9008093E80008951092F000809106
:2002C000E70090918400891750F44093F0001092E9001092E8008F5F8093E70008951092AF
:2002E000E7001092E9001092E800089596E896B987B9369A3699FECF43E080E090E0369A29
:200300003699FECF24B135B1820F931F4150B9F7379863E070E00E94AD09CB0108950F933D
:200320001F93DF93CF930F92CDB7DEB7883009F4C4C0893098F4843009F4EDC0853030F4C8
:20034000813001F1833009F026C236C0863009F489C070E0873008F09CC01AC28B3009F485
:20036000C2C08C3030F48930D1F18A3009F013C208C28E3009F450C08F3039F08C3009F0E6
:200380000AC209C063E07FEF08C26093840081E08093F00000C2613031F0623031F06430B7
:2003A00031F483E005C085E003C084E001C089E090E061E070E010C0613031F0623031F004
:2003C000643031F483E005C085E003C084E001C089E090E060E070E00E944908DCC1633063
:2003E00009F4E2C1683009F4E1C1643031F0623031F0613031F080E005C083E003C084E05D
:2004000001C085E090E00E944208009709F4C3C181E08093C600BFC180E069830E94760123
:200420006981613061F42091F1003091F200369527952817390798F46093C6009DC162305C
:2004400009F09AC12091F1003091F200369527952817390720F081E08093C6008DC11092B3
:20046000C6008AC182E090E0909383008093820070E07093D8006093D70081E090E0909375
:20048000F4008093F30081E08093F0001092840082C184E090E09093830080938200709383
:2004A000D8006093D70081E090E09093F4008093F30081E08093F0002BC088E090E0909362
:2004C00083008093820070E07093D8006093D70081E090E09093F4008093F30081E08093AD
:2004E000F00082E015C080E190E0909383008093820070E07093D8006093D70081E090E003
:200500009093F4008093F30081E08093F00084E08093840040C1613009F077C00091EE001E
:200520001091EF000115110559F486E06FE00E948F0185E090E0909383008093820079C082
:200540000130110589F486E060E10E948F01109383000093820082E090E09093EF008093CC
:20056000EE006FEF7FEF19C10230110559F486E06FE00E948F0181E090E0909383008093E1
:20058000820074C00330110559F486E060E10E948F0181E090E090938300809382006EC0FC
:2005A0000430110559F486E06FE00E948F0182E090E0909383008093820077C0053011052E
:2005C00059F486E060E10E948F0182E090E0909383008093820071C00630110559F486E0B8
:2005E0006FE00E948F0182E190E090938300809382007AC00730110509F0CDC084E090E08B
:200600009093830080938200B7C0623009F0C3C08091EE009091EF00009771F480E090E03F
:2006200061E070E00E944E0881E08093F0001092840081E090E091CF8130910519F4109280
:20064000F00089CF82309105A1F481E08093F0001092840080E090E060E070E00E944E0893
:2006600081E090E061E070E00E944E0883E090E074CF8330910529F41092F00084E090E03E
:200680006CCF84309105A1F481E090E060E070E00E944E0882E090E061E070E00E944E088C
:2006A00081E08093F0001092840085E090E055CF8530910529F41092F00086E090E04DCFCB
:2006C00086309105A1F481E08093F0001092840082E090E060E070E00E944E0883E090E082
:2006E00061E070E00E944E0887E090E036CF8730910529F41092F00088E090E02ECF88300C
:200700009105A1F481E08093F0001092840083E090E060E070E00E944E0882E090E061E0B6
:2007200070E00E944E0889E090E017CF8930910529F41092F0008AE090E00FCF8A309105AC
:20074000A1F481E08093F0001092840082E090E060E070E00E944E0881E090E061E070E0BE
:200760000E944E088BE090E0F8CE8B30910599F40E9439081092F0001092EF001092EE006C
:200780000AC08091C600882331F01092C60070E06850704002C060E070E0CB010F90CF91AF
:2007A000DF911F910F91089581E02CCE82E02ACE442311F01092E400E091E400ED3FE0F4E4
:2007C000F0E08E0F9F1FE60FF71FDC018C9160810E948F01BFEF83309B0721F48FEF80932D
:2007E000E40005C02091E400280F2093E4008091E4008F5F8093E400089580E090E051E075
:2008000042E020B330E0082E02C0359527950A94E2F7FC01E953FF4F20FD07C02081283C6E
:20082000D0F420812F5F208316C02081283C29F4FC01E153FF4F40830AC020812B3038F0FA
:200840002081283C20F4FC01E153FF4F5083FC01E953FF4F108201968830910591F608950B
:200860008091E5009091E60020E030E041E050E0F901E752FF4F6081613089F0613018F015
:200880006230B9F517C0E8B3BA01022E02C0660F771F0A94E2F760956E2368BB2AC0E8B349
:2008A000BA01022E02C0660F771F0A94E2F7E62BE8BB1FC08436910574F0883C91056CF408
:2008C000E8B3BA01022E02C0660F771F0A94E2F760956E2368BB01960CC068B3CA01022E2C
:2008E00002C0880F991F0A94E2F7682B68BB80E090E02F5F3F4F2430310509F0B9CF8093B0
:20090000E5009093E60020E030E041E050E0F901E352FF4F60816130F1F0613020F0623085
:2009200009F053C030C0222311F4A8984EC0213011F4A9984AC0223011F4AA9846C0233090
:2009400011F4AB9842C0243011F4AC983EC02530E1F5AD983AC0222311F4A89A36C0213075
:2009600011F4A99A32C0223011F4AA9A2EC0233011F4AB9A2AC0243011F4AC9A26C0253053
:2009800021F5AD9A22C08931910584F0BC01695170406931710560F4E5B3BA01022E02C084
:2009A000660F771F0A94E2F7E62BE5BB01960DC065B3CA01022E02C0880F991F0A94E2F705
:2009C0008095862385BB80E090E02F5F3F4F2630310509F09CCF9093E6008093E50008959F
:2009E000AF92BF92CF92DF92EF92FF920F931F93CF93DF937C01EB018A016031710588F4E2
:200A0000FB01EB57FF4FD080FB01EB56FF4FC080FB01EB55FF4FB080FB01EB54FF4FA080CC
:200A200004C0AA24BB24CC24DD2482E090E00E944208009721F081E0D11080E0D82E83E0E3
:200A400090E00E944208009721F081E0C11080E0C82E84E090E00E944208009721F081E041
:200A6000B11080E0B82E85E090E00E944208009721F081E0A11080E0A82E8D2D813029F436
:200A800080E090E061E070E004C080E090E060E070E00E944E088C2D813029F481E090E081
:200AA00061E070E004C081E090E060E070E00E944E088B2D813029F482E090E061E070E09F
:200AC00004C082E090E060E070E00E944E088A2D813029F483E090E061E070E004C083E0E8
:200AE00090E060E070E00E944E08E114F10489F10C30110521F00330110509F03FC0C13005
:200B0000D10519F485E090E00BC0C230D10519F484E090E005C0C430D10581F583E090E0D1
:200B200061E070E00E94490829C00B30110589F48091D7009091D800C817D90751F0D09336
:200B4000D800C093D70081E090E09093F4008093F3008A2D90E06B2D70E04C2D50E02D2D93
:200B600030E00E944900DF91CF911F910F91FF90EF90DF90CF90BF90AF9008959801265044
:200B8000304023303105A0F2D0CF1F93813029F48CEF91E060E00E94060A8CEF91E00E943F
:200BA000FE09813009F450C088E09FEF95BB98BB2FEF31EE44E0215030404040E1F700C07D
:200BC000000015BA18BA2FEF31EE44E0215030404040E1F700C00000815041F788EC20E499
:200BE00095B3922795BBA7EBBBE01197F1F700C000008150A9F710E080E00E947601833298
:200C0000910520F4AB9AAD9818EC03C0AD9AAB981F5F2FE738E341E0215030404040E1F746
:200C200000C00000143640F3183C91F48FEF93EDA0E381509040A040E1F700C000008CEF89
:200C400091E061E00E94060A0E94390880E001C081E01F9108952F923F924F925F926F9219
:200C60007F928F929F92AF92BF92CF92DF92EF92FF920F931F93DF93CF93CDB7DEB7C25048
:200C8000D2400FB6F894DEBF0FBECDBF8FEF84BB87BB11BA82BB80E091E09E012F5F3F4F68
:200CA000CF5FDD4F39832883C150D240F9019C01119221503040E1F7F1E02F2E3F2E2C0E88
:200CC0003D1EF1019C01119221503040E1F771016E010894C11CD11C00E010E0C80180501E
:200CE00090400E94FE09F60181936F01C80182509F4F0E94FE09F70181937F010F5F1F4F66
:200D00000D3F110559F78EB589608EBD80E197E29BBD8ABD89B7806189BF789480E00E94BA
:200D2000C505882309F04BC10E9476019093F2008093F1008531910530F484E190E090939F
:200D4000F2008093F100BB24CC24AA2401E0DD247E010894E11CF11CE1E08E2E9E2E8C0E16
:200D60009D1EFD2DF13071F1F13020F0F23009F0FBC0A8C080E090E060E070E00E94490849
:200D800081E090E060E070E00E94490882E090E061E070E00E94490887E090E00E944208E6
:200DA000009729F00E9453081092E40001E08091F000882309F0D8C0C701B401402F0E9454
:200DC000D803D2C00E94530880E090E060E070E00E94490881E090E061E070E00E94490801
:200DE00082E090E060E070E00E944908002311F0BB24CC2487E090E00E944208009719F048
:200E0000BB2021F0F8C0BB2061F102C0BB24B39481E090E062E070E00E9449080C2D10E09A
:200E20003401600E711EF30160812701400E511EF20140818B2D90E070E050E00E94F004D4
:200E4000F3018083C80180509040F20160810E94060AC80182509F4FF30160810E94060A9C
:200E600029C081E090E061E070E00E94490887010C0D111DF801408180E090E0642F70E0F8
:200E800050E00E94F004F80180830A2D10E0F701E00FF11FC8018050904060810E94060A76
:200EA000F401E00FF11FC80182509F4F60810E94060ABB248091E3008C1508F055C0C0924F
:200EC000E30052C080E090E061E070E00E94490881E090E060E070E00E94490882E090E0A3
:200EE00060E070E00E94490880E00E9476019093F2008093F1008531910530F424E130E058
:200F00003093F2002093F10087E090E00E944208009751F10E943908C701B4010E943701A2
:200F200031012E010894411C511C00E010E012C0F20161912F01C801805090400E94060A18
:200F4000F30161913F01C80182509F4F0E94060A0F5F1F4FA02E8091E30090E080179107F3
:200F60001CF00E3F110521F786E090E00E9442088150823018F4D39401E001C000E0FD2D86
:200F8000F33018F00E943908DD2480990BC0819909C0869907C0879905C081E00E94C505E3
:200FA000882369F48FE097E20197F1F700C000000E9443010E94FD030E943004D2CE81E0A2
:200FC00090E0CE5FDD4F0FB6F894DEBF0FBECDBFCF91DF911F910F91FF90EF90DF90CF9005
:200FE000BF90AF909F908F907F906F905F904F903F902F900895C39434CF8130910511F468
:20100000C69A0895C698089587E690E000000197E9F708951F93CF93DF93182F80E090E049
:201020000E94FD070E940408C8E0D0E010FF03C081E090E002C080E090E00E94FD070E9487
:201040000408219711F01695F1CF81E090E00E94FD070E940408DF91CF911F91089581E0BD
:201060008093D9008093DA008093DB008093DC0008951092D9001092DA001092DB00109207
:20108000DC000895FC01E153FF4F8081108290E00895FC01E352FF4F60830895FC01E75282
:2010A000FF4F6083089582EE90E01092E200FC01319710820297FC011082089582EE90E002
:2010C00021E02093E200FC01319720830297FC01208308955058BB27AA270ED0E5C0D6D0B8
:2010E00030F0DBD020F031F49F3F11F41EF4CBC00EF4E095E7FBC1C0E92FE7D080F3BA1783
:20110000620773078407950718F071F49EF5FFC00EF4E0950B2EBA2FA02D0B01B901900149
:201120000C01CA01A0011124FF27591B99F0593F50F4503E68F11A16F040A22F232F342F35
:201140004427585FF3CF469537952795A795F0405395C9F77EF41F16BA0B620B730B840B4E
:20116000BAF09150A1F0FF0FBB1F661F771F881FC2F70EC0BA0F621F731F841F48F487954B
:2011800077956795B795F7959E3F08F0B3CF9395880F08F09927EE0F97958795089504D0EB
:2011A0006894B111B5C0089598D088F09F5790F0B92F9927B751A0F0D1F0660F771F881F56
:2011C000991F1AF0BA95C9F712C0B13081F09FD0B1E008959CC0672F782F8827B85F39F0F5
:2011E000B93FCCF3869577956795B395D9F73EF490958095709561957F4F8F4F9F4F08955F
:20120000E89409C097FB3EF490958095709561957F4F8F4F9F4F9923A9F0F92F96E9BB2718
:201220009395F695879577956795B795F111F8CFFAF4BB0F11F460FF1BC06F5F7F4F8F4F51
:201240009F4F16C0882311F096E911C0772321F09EE8872F762F05C0662371F096E8862F60
:2012600070E060E02AF09A95660F771F881FDAF7880F9695879597F9089597F99F6780E809
:2012800070E060E008959FEF80EC089500240A941616170618060906089500240A941216CB
:2012A0001306140605060895092E0394000C11F4882352F0BB0F40F4BF2B11F460FF04C077
:2012C0006F5F7F4F8F4F9F4F089557FD9058440F551F59F05F3F71F04795880F97FB991F01
:2012E00061F09F3F79F087950895121613061406551FF2CF4695F1DF08C016161706180633
:20130000991FF1CF86957105610508940895E894BB2766277727CB0197F90895629FD001D1
:20132000739FF001829FE00DF11D649FE00DF11D929FF00D839FF00D749FF00D659FF00D32
:201340009927729FB00DE11DF91F639FB00DE11DF91FBD01CF0111240895AA1BBB1B51E1E7
:2013600007C0AA1FBB1FA617B70710F0A61BB70B881F991F5A95A9F780959095BC01CD0152
:20138000089597FB092E05260ED057FD04D014D00AD0001C38F450954095309521953F4FED
:2013A0004F4F5F4F0895F6F790958095709561957F4F8F4F9F4F0895A1E21A2EAA1BBB1B85
:2013C000FD010DC0AA1FBB1FEE1FFF1FA217B307E407F50720F0A21BB30BE40BF50B661F1B
:2013E000771F881F991F1A9469F760957095809590959B01AC01BD01CF010895E199FECFFB
:201400009FBB8EBBE09A99278DB30895262FE199FECF9FBB8EBBE09A01970DB2021631F0C9
:201420002DBB0FB6F894E29AE19A0FBE0895F894FFCF303BD1389C344A31592F642C932A24
:20144000752707258323E520911F981D691C4E1AA518AD1704000100000000000000000140
:20146000010101010101010000000001010101000000000101010100000101000001010059
:1814800000010100000101000100010001000100010001000100010048
:00000001FF
