:020000040000FA
:0400000018F09FE570
:040020008800000054
:100040000120704770B50E4E0E4C82B03500361D43
:1000500005E00100306800F01BF90C350C36A542B4
:1000600009D2706831682A688842F2D1306800216C
:1000700000F01CF9F1E702B070BC01BC0047C046BB
:10008000D0020000DC02000000000FE11F00C0E30E
:10009000120080E300F021E114D09FE51F00C0E3CF
:1000A0001F0080E300F021E108D09FE508009FE5F4
:1000B00010FF2FE10006004000050040C0000000D6
:1000C00001C08FE21CFF2FE1044C054D054E064F89
:1000D000AE462047002809D0BE4630474100000008
:1000E000D500000045000000ED000000044C054D67
:1000F0000020AE462047044C044DAE462047000089
:100100008D010000F700000081020000C502000020
:1001100000B564214843401E0028FCD101BC0047C3
:100120000748074909688022D2040A43026013483D
:10013000124909688022D2040A4302607047C0460F
:10014000088002E000B50C480B4909688022D204FF
:100150000A4302600748FFF7DBFF084807490968C0
:100160008022D2040A4302600248FFF7D1FF01BC9B
:1001700000470000102700000C8002E0048002E02D
:1001800000B5401E0028FCD101BC004700B500F0BE
:100190000BF8FFF7C5FFFFF7D5FF0248FFF7F0FFA9
:1001A000F9E7C0468813000000B52B482A490968C2
:1001B0001F22914302220A43026027482649096808
:1001C0006022914320220A4302602448234909689F
:1001D000FF229143AA220A43026020481F4909686E
:1001E000FF22914355220A4302601D481C490968B9
:1001F00001220A430260194818490968FF22914305
:10020000AA220A430260154814490968FF22914353
:1002100055220A430260134800688021C90001404A
:100220000800800A0028F6D00D480D49096802220E
:100230000A430260094809490968FF229143AA223A
:100240000A430260054805490968FF229143552287
:100250000A43026001BC004784C01FE08CC01FE05D
:1002600080C01FE088C01FE07047000010B582B05A
:100270000400009469460120FFF7F6FFF9E700004B
:1002800000B581B000F01EF801B001BC00470000CD
:1002900010B40300002A05D00C78491C1C705B1CAC
:1002A000521EF9D110BC00B0704700000906090EBB
:1002B0000300002A03D019705B1C521EFBD100B052
:1002C00070470000014CA646204700006D02000068
:0C02D000000000000000004000000040A2
:0400000500000000F7
:00000001FF
