:200000000C002A000C9434000C9434000C9434000C9434000C9434000C9434000C943400DE
:200020000C9434000C9434000C9400000C9434000C9434000C9434000C9434000C94340054
:200040000C9434000C9434000C9434000C9434000C94340011241FBECFE5D4E0DEBFCDBFD9
:200060000E9436000C9488000C940000A59AA49AA39AA29AA19AA09AAD9A8FE794E8AEE1AD
:2000800081509040A040E1F700C00000AC9AAD988FE794E8AEE181509040A040E1F700C022
:2000A0000000AB9AAC988FE794E8AEE181509040A040E1F700C00000AB98AA9A8FE794E8A4
:2000C000AEE181509040A040E1F700C00000AA98A99A8FE794E8AEE181509040A040E1F719
:2000E00000C00000A998A89A8FE794E8AEE181509040A040E1F700C00000A8988FE794E8F1
:14010000AEE181509040A040E1F700C00000B4CFF894FFCF66
:00000001FF
