:100000002BC051C044C043C042C041C040C03FC0EB
:100010003EC03DC03CC03BC03AC039C038C037C00C
:1000200036C073C034C033C032C031C030C02FC0FE
:100030002EC02DC008C5B9C4C1C4C5C4DBC4ECC43E
:1000400012C511C510C50FC50EC50DC50CC50BC514
:100050000AC509C59AC4B9C411241FBECFEFD2E0A6
:10006000DEBFCDBF11E0A0E0B1E0E2EBFAE002C0FC
:1000700005900D92AE30B107D9F722E0AEE0B1E0C5
:1000800001C01D92A433B207E1F7C0D310C5B8CFA9
:10009000FC01680F791F85E5E617F70719F09191C4
:1000A0008927FACF08951F920F920FB60F9211244D
:1000B0002F938F939F9380916900282F217080FD4B
:1000C00015C0809110018EBD8091100187FF03C083
:1000D00081E191E002C080E090E090930101809383
:1000E00000011092100129985F9A03C081E080936B
:1000F0000F0181E08227809369009F918F912F915A
:100100000F900FBE0F901F9018951F920F920FB671
:100110000F9211248F939F93EF93FF93E09100012F
:10012000F09101013097B1F08EB590819EBDE091C4
:100130000001F0910101819382E0EE31F80728F48B
:10014000F0930101E093000108C0109201011092A8
:10015000000103C0809110018EBDFF91EF919F912E
:100160008F910F900FBE0F901F901895CF93C82FAF
:10017000853008F0C4E01092C50020E432E44FE07E
:1001800050E00C2E04C056954795379527950A9454
:10019000D2F760E079E08DE390E067D4569547951B
:1001A00037952795215031092093C4008EE2809322
:1001B000C2008091C20081608093C200519A599818
:1001C000549A5C9A45E84A95F1F70000599A00C0A4
:1001D00000C08091C10080618093C1009091C200F5
:1001E0009F7390649093C20021E030E00C2E01C018
:1001F000220F0A94EAF780E090E051E045E14A9549
:10020000F1F700000196452F481B420FB9F7CF9137
:1002100008952091C00027FF03C02091C600F9CFA8
:100220002091C10028602093C10020E030E0261713
:10023000370709F14091C00045FFFCCFFC01E20FF8
:10024000F31F40814093C6004091C00047FFFCCFA0
:100250005091C6004081541759F08091C100877FAA
:100260008093C10082E08BB9519859988FEF08951F
:100270002F5F3F4FDCCF8091C100877F8093C1000B
:1002800082E08BB95198599880E008950F931F939D
:10029000CF93DF93D901E0E0F0E0E617F707D1F064
:1002A0008D019A01011511052105310581F0C091DB
:1002B000C000C7FF07C02091C600EC012993CE0102
:1002C0003196EBCF0150110921093109EBCF80E0C4
:1002D00090E001C0CF01DF91CF911F910F91089560
:1002E000411551056105710579F02091C00027FF86
:1002F00006C02091C600FC01208380E00895415093
:10030000510961097109ECCF8FEF0895E2ECF0E03B
:1003100080818F738083E1ECF0E080818F7E808329
:100320008081877F808382E08BB9519859988BE2D6
:1003300091E00197F1F700C000005C9A0895E0E2B7
:10034000F2E06E0FDC012D91CD0121936E13FACFF7
:100350000895CF93DF9300D000D0CDB7DEB76150C2
:1003600071098109910969837A838B839C836F3F2B
:1003700071058105910509F038F420EA20931F02E8
:100380006093200262E025C06115710521E08207BB
:10039000910548F481EA80931F0262E0CE01019644
:1003A000CEDF63E016C0611571058105914048F408
:1003B00082EA80931F0263E0CE010196C0DF64E011
:1003C00008C083EA80931F0264E0CE010196B7DF84
:1003D00065E070E08FE192E01CDF0F900F900F90CE
:1003E0000F90DF91CF91089581EC80931F0289E5F2
:1003F0008093200262E070E08FE192E00ADF91E0FA
:10040000811101C090E0892F819508950F931F936A
:10041000CF93DF9300D000D0CDB7DEB7AC018B0116
:100420008CE080931F0260E070E0739549835A83EB
:100430006B837C8364E0CE01019681DF65E070E030
:100440008FE192E0E6DE48EE53E060E070E0C80144
:1004500047DF0F900F900F900F90DF91CF911F917A
:100460000F9108951F93CF93DF9300D000D0CDB7A5
:10047000DEB7162FA0E0B0E0B39589839A83AB83F3
:10048000BC838CE480931F0264E0CE01019657DFA9
:100490001093240266E070E08FE192E0BADE0F90E4
:1004A0000F900F900F90DF91CF911F910895682FBB
:1004B0008AEC91E0D7CFEF92FF920F931F93CF93E7
:1004C000DF931F92CDB7DEB780E4F1DF61E08BEC04
:1004D00091E0C8DF00E010E090E8E92EE0921F0212
:1004E0001092200262E070E08FE192E092DE8111D2
:1004F00002C0F12C02C08CEFF82E48EE53E060E011
:1005000070E0CE010196ECDE81110DC0F1100BC040
:10051000998191FD09C00F5F1F4F083E83E01807C6
:10052000E9F68DEF01C08CEF0F90DF91CF911F9115
:100530000F91FF90EF90089594E690931F0280939F
:10054000200262E070E08FE192E063CE0F931F9390
:10055000CF93DF938C01EB016230710590F080E066
:1005600090E0F7DE84E680931F0261E070E08FE1A7
:1005700092E04FDEBE01C801DF91CF911F910F9134
:1005800048CEFC018081DF91CF911F910F91D4CF94
:10059000CF93DF9300D000D0CDB7DEB769837A83E5
:1005A0008B839C838BE680931F0264E0CE010196CF
:1005B000C6DE65E070E08FE192E02BDE0F900F90D9
:1005C0000F900F90DF91CF910895CF92DF92EF922D
:1005D000FF920F931F93CF93DF936B017C018A01EE
:1005E000E90183E464DFC701B601D2DFC230D1057F
:1005F00020F0BE0180E090E0ACDE84E280931F0238
:1006000061E070E08FE192E004DE28EE33E040E04C
:1006100050E0BE01C801DF91CF911F910F91FF9073
:10062000EF90DF90CF9032CECF92DF92EF92FF9299
:10063000CF93DF931F92CDB7DEB76B017C01C1145E
:10064000D104E104F10479F0BE016F5F7F4F8FECBC
:1006500091E0DCDE898187FF08C081E0C81AD108FB
:10066000E108F108ECCF8DEF01C080E00F90DF9141
:10067000CF91FF90EF90DF90CF90089590911E0260
:1006800091112CC073DDB0DE80EE80931F028FEFDE
:100690008093200288E88093210288ED80932202D3
:1006A0008DEC8093230285E4809324028BEA80936F
:1006B000250289E88093260282E18093270269E07F
:1006C00070E08FE192E0A5DD68EE73E080E090E0FD
:1006D000ABDF8093330281E080931E02809133026E
:1006E0000895CF92DF92EF92FF92CF93DF93EC01C8
:1006F0006A017B0160E070E0CB014ADF811117C025
:10070000CD2B11F086E301C086E2D1DE81110FC04E
:1007100061E08BEC91E0A6DE811109C0C701B60152
:10072000DF91CF91FF90EF90DF90CF907DCFDF9161
:10073000CF91FF90EF90DF90CF90089588E1B7DEE2
:10074000811110C060E074E08EE890E021DF81113B
:1007500009C085E5F1DE811105C068EE73E080E037
:1007600090E062CF0895EADF811114C08AE19FDE34
:10077000811110C060E074E08EE890E009DF811123
:1007800009C085E5D9DE811105C068EE73E080E01F
:1007900090E04ACF0895CF92DF92EF92FF920F93AD
:1007A0001F93CF93DF9300D000D01F92CDB7DEB759
:1007B00069837A838B839C83680179018CE44D8300
:1007C00076DE8CE480931F0264E0CE010196B7DDF3
:1007D0004D814093240266E070E08FE192E019DDE4
:1007E000C701B60121DF0F900F900F900F900F906F
:1007F000DF91CF911F910F91FF90EF90DF90CF90FD
:10080000089584DD10921E0280E00895CF93DF9357
:100810001F92CDB7DEB791E080E80FB6F8948093D1
:100820006100909361000FBE80E184B9219A2998FC
:10083000209A579A28985F9880EC8CBD82E080932C
:10084000690081E08DBB7894BB24B39452ECA52E53
:1008500068ED962E80911001806880931001299A8E
:100860005F9880910F018823E1F310920F0180912E
:10087000110187FFEFCF68E070E081E191E008DCD3
:10088000882321F084E480931001E7C020911201B5
:1008900030911301C090140180911501409116010F
:1008A00090911701642E712C792A9091110141E0E9
:1008B0006416740608F0CEC0D12CE12CF12C760120
:1008C000DD24CC24D32AC22AF82A95FF53C0611410
:1008D000710429F41091110114FF27C00AC0B3015B
:1008E0006F5F7F4F89E191E0D3DB882399F324E4A4
:1008F000B2C001E0812F8370833009F000E048EE40
:1009000053E060E070E0802F90E0EBDE811198C052
:10091000002311F083E301C083E2C9DD811190C09F
:10092000C701B60135DE81118BC06114710431F04D
:10093000B30189E191E00ADE811182C01F70143099
:10094000B8F0E12FF0E0E250FF4F8081B0DD81117F
:1009500077C0C701B6011CDE811172C085E5ECDDF0
:1009600081116EC068EE73E080E090E05DDE68C0EB
:1009700080E066C0892F8F7390E08231910508F086
:1009800072C0FC01E65EFF4F0994A092180190929C
:100990001901B0921A0110921B0164E070E088E125
:1009A00091E076DB80931C014EC08C2D67DE282FF2
:1009B000811147C0289AB0920E0145C02898109224
:1009C0000E011FDF3DC077DD3BC0930148E151E0E0
:1009D000C701B601FADD282F8301095F1F4FB3015C
:1009E00088E191E0298354DBF801EF5EFE4F8083BC
:1009F000298127C09091190180911A018927853595
:100A000009F075CF4091190108EE13E020E030E0C5
:100A1000C701B601C0DE14C06114710481F0B301D6
:100A20006F5F7F4F89E191E033DB811160CFB301CC
:100A300089E191E08BDD882311F0282F0CC093DE33
:100A4000282F121614F420E006C02223E1F32F739E
:100A5000206401C028E420931001809111018F7758
:100A600080931101F7CE28EFF2CFA1E21A2EAA1B34
:100A7000BB1BFD010DC0AA1FBB1FEE1FFF1FA2174E
:100A8000B307E407F50720F0A21BB30BE40BF50B4B
:100A9000661F771F881F991F1A9469F760957095D4
:100AA000809590959B01AC01BD01CF010895F8940C
:020AB000FFCF76
:0E0AB20011012B222A322E242C342F252D3513
:00000001FF
